{
  "_format": "hh-sol-artifact-1",
  "contractName": "CreateCV",
  "sourceName": "contracts/CurriculumVitae.sol",
  "abi": [
    {
      "inputs": [],
      "stateMutability": "payable",
      "type": "constructor"
    },
    {
      "anonymous": false,
      "inputs": [
        {
          "indexed": false,
          "internalType": "string",
          "name": "Achievement",
          "type": "string"
        }
      ],
      "name": "AchievementCreated",
      "type": "event"
    },
    {
      "anonymous": false,
      "inputs": [
        {
          "indexed": false,
          "internalType": "string",
          "name": "Certificate",
          "type": "string"
        }
      ],
      "name": "CertificateCreated",
      "type": "event"
    },
    {
      "anonymous": false,
      "inputs": [
        {
          "indexed": false,
          "internalType": "string",
          "name": "Education",
          "type": "string"
        }
      ],
      "name": "EducationCreated",
      "type": "event"
    },
    {
      "anonymous": false,
      "inputs": [
        {
          "indexed": false,
          "internalType": "string",
          "name": "Experience",
          "type": "string"
        }
      ],
      "name": "ExperienceCreated",
      "type": "event"
    },
    {
      "anonymous": false,
      "inputs": [
        {
          "indexed": false,
          "internalType": "string",
          "name": "Other_Information",
          "type": "string"
        }
      ],
      "name": "Other_InformationCreated",
      "type": "event"
    },
    {
      "anonymous": false,
      "inputs": [
        {
          "indexed": false,
          "internalType": "string",
          "name": "Skill",
          "type": "string"
        }
      ],
      "name": "SkillCreated",
      "type": "event"
    },
    {
      "inputs": [
        {
          "internalType": "uint256",
          "name": "",
          "type": "uint256"
        }
      ],
      "name": "achievements",
      "outputs": [
        {
          "internalType": "uint256",
          "name": "id",
          "type": "uint256"
        },
        {
          "internalType": "string",
          "name": "Achievement",
          "type": "string"
        }
      ],
      "stateMutability": "view",
      "type": "function"
    },
    {
      "inputs": [
        {
          "internalType": "address",
          "name": "wallet",
          "type": "address"
        }
      ],
      "name": "addManager",
      "outputs": [],
      "stateMutability": "nonpayable",
      "type": "function"
    },
    {
      "inputs": [
        {
          "internalType": "uint256",
          "name": "",
          "type": "uint256"
        }
      ],
      "name": "certificates",
      "outputs": [
        {
          "internalType": "uint256",
          "name": "id",
          "type": "uint256"
        },
        {
          "internalType": "string",
          "name": "Certificate",
          "type": "string"
        }
      ],
      "stateMutability": "view",
      "type": "function"
    },
    {
      "inputs": [
        {
          "internalType": "address",
          "name": "wallet",
          "type": "address"
        }
      ],
      "name": "checkOwnerOrManager",
      "outputs": [
        {
          "internalType": "bool",
          "name": "",
          "type": "bool"
        }
      ],
      "stateMutability": "view",
      "type": "function"
    },
    {
      "inputs": [
        {
          "internalType": "string",
          "name": "_Achievement",
          "type": "string"
        }
      ],
      "name": "createAchievement",
      "outputs": [],
      "stateMutability": "nonpayable",
      "type": "function"
    },
    {
      "inputs": [
        {
          "internalType": "string",
          "name": "_Certificate",
          "type": "string"
        }
      ],
      "name": "createCertificate",
      "outputs": [],
      "stateMutability": "nonpayable",
      "type": "function"
    },
    {
      "inputs": [
        {
          "internalType": "string",
          "name": "_Education",
          "type": "string"
        }
      ],
      "name": "createEducation",
      "outputs": [],
      "stateMutability": "nonpayable",
      "type": "function"
    },
    {
      "inputs": [
        {
          "internalType": "string",
          "name": "_Experience",
          "type": "string"
        }
      ],
      "name": "createExperience",
      "outputs": [],
      "stateMutability": "nonpayable",
      "type": "function"
    },
    {
      "inputs": [
        {
          "internalType": "string",
          "name": "_Other_Information",
          "type": "string"
        }
      ],
      "name": "createOther_Information",
      "outputs": [],
      "stateMutability": "nonpayable",
      "type": "function"
    },
    {
      "inputs": [
        {
          "internalType": "string",
          "name": "_Skill",
          "type": "string"
        }
      ],
      "name": "createSkill",
      "outputs": [],
      "stateMutability": "nonpayable",
      "type": "function"
    },
    {
      "inputs": [],
      "name": "cvCount",
      "outputs": [
        {
          "internalType": "uint256",
          "name": "",
          "type": "uint256"
        }
      ],
      "stateMutability": "view",
      "type": "function"
    },
    {
      "inputs": [
        {
          "internalType": "uint256",
          "name": "",
          "type": "uint256"
        }
      ],
      "name": "educations",
      "outputs": [
        {
          "internalType": "uint256",
          "name": "id",
          "type": "uint256"
        },
        {
          "internalType": "string",
          "name": "Education",
          "type": "string"
        }
      ],
      "stateMutability": "view",
      "type": "function"
    },
    {
      "inputs": [
        {
          "internalType": "uint256",
          "name": "",
          "type": "uint256"
        }
      ],
      "name": "experiences",
      "outputs": [
        {
          "internalType": "uint256",
          "name": "id",
          "type": "uint256"
        },
        {
          "internalType": "string",
          "name": "Experience",
          "type": "string"
        }
      ],
      "stateMutability": "view",
      "type": "function"
    },
    {
      "inputs": [
        {
          "internalType": "address",
          "name": "",
          "type": "address"
        }
      ],
      "name": "managers",
      "outputs": [
        {
          "internalType": "bool",
          "name": "",
          "type": "bool"
        }
      ],
      "stateMutability": "view",
      "type": "function"
    },
    {
      "inputs": [
        {
          "internalType": "uint256",
          "name": "",
          "type": "uint256"
        }
      ],
      "name": "other_informations",
      "outputs": [
        {
          "internalType": "uint256",
          "name": "id",
          "type": "uint256"
        },
        {
          "internalType": "string",
          "name": "Other_Information",
          "type": "string"
        }
      ],
      "stateMutability": "view",
      "type": "function"
    },
    {
      "inputs": [
        {
          "internalType": "address",
          "name": "wallet",
          "type": "address"
        }
      ],
      "name": "removeManager",
      "outputs": [],
      "stateMutability": "nonpayable",
      "type": "function"
    },
    {
      "inputs": [
        {
          "internalType": "uint256",
          "name": "",
          "type": "uint256"
        }
      ],
      "name": "skills",
      "outputs": [
        {
          "internalType": "uint256",
          "name": "id",
          "type": "uint256"
        },
        {
          "internalType": "string",
          "name": "Skill",
          "type": "string"
        }
      ],
      "stateMutability": "view",
      "type": "function"
    }
  ],
  "bytecode": "0x60806040526000805533600160006101000a81548173ffffffffffffffffffffffffffffffffffffffff021916908373ffffffffffffffffffffffffffffffffffffffff1602179055506118a1806100586000396000f3fe608060405234801561001057600080fd5b506004361061010b5760003560e01c8063c09f2756116100a2578063eaeac63111610071578063eaeac631146102b4578063ef1edfe0146102e5578063ef4b090014610316578063f2a01bb914610334578063fdff9b4d146103645761010b565b8063c09f27561461022f578063c687e76f1461024b578063c775e3a114610267578063cf3e7c7c146102835761010b565b806350d15fbe116100de57806350d15fbe14610195578063663b3e22146101c657806374444882146101f7578063ac18de43146102135761010b565b806314ef312b1461011057806327aed72e1461012c5780632d06177a1461015d57806338a4032d14610179575b600080fd5b61012a60048036038101906101259190611474565b610394565b005b610146600480360381019061014191906114b5565b61051e565b6040516101549291906115ed565b60405180910390f35b6101776004803603810190610172919061144b565b6105ca565b005b610193600480360381019061018e9190611474565b61067f565b005b6101af60048036038101906101aa91906114b5565b610809565b6040516101bd9291906115ed565b60405180910390f35b6101e060048036038101906101db91906114b5565b6108b5565b6040516101ee9291906115ed565b60405180910390f35b610211600480360381019061020c9190611474565b610961565b005b61022d6004803603810190610228919061144b565b610aeb565b005b61024960048036038101906102449190611474565b610ba0565b005b61026560048036038101906102609190611474565b610d2a565b005b610281600480360381019061027c9190611474565b610eb4565b005b61029d600480360381019061029891906114b5565b61103e565b6040516102ab9291906115ed565b60405180910390f35b6102ce60048036038101906102c991906114b5565b6110ea565b6040516102dc9291906115ed565b60405180910390f35b6102ff60048036038101906102fa91906114b5565b611196565b60405161030d9291906115ed565b60405180910390f35b61031e611242565b60405161032b91906115d2565b60405180910390f35b61034e6004803603810190610349919061144b565b611248565b60405161035b9190611575565b60405180910390f35b61037e6004803603810190610379919061144b565b6112f6565b60405161038b9190611575565b60405180910390f35b600260003373ffffffffffffffffffffffffffffffffffffffff1673ffffffffffffffffffffffffffffffffffffffff16815260200190815260200160002060009054906101000a900460ff168061043957503373ffffffffffffffffffffffffffffffffffffffff16600160009054906101000a900473ffffffffffffffffffffffffffffffffffffffff1673ffffffffffffffffffffffffffffffffffffffff16145b610478576040517f08c379a000000000000000000000000000000000000000000000000000000000815260040161046f906115b2565b60405180910390fd5b60008081548092919061048a90611756565b9190505550604051806040016040528060005481526020018281525060036000805481526020019081526020016000206000820151816000015560208201518160010190805190602001906104e0929190611316565b509050507f263ca379d0449dbbaa8c6bb6bb12b7de6c64447c2f4336bc9be52076f14ef314816040516105139190611590565b60405180910390a150565b600560205280600052604060002060009150905080600001549080600101805461054790611724565b80601f016020809104026020016040519081016040528092919081815260200182805461057390611724565b80156105c05780601f10610595576101008083540402835291602001916105c0565b820191906000526020600020905b8154815290600101906020018083116105a357829003601f168201915b5050505050905082565b3373ffffffffffffffffffffffffffffffffffffffff16600160009054906101000a900473ffffffffffffffffffffffffffffffffffffffff1673ffffffffffffffffffffffffffffffffffffffff161461062457600080fd5b6001600260008373ffffffffffffffffffffffffffffffffffffffff1673ffffffffffffffffffffffffffffffffffffffff16815260200190815260200160002060006101000a81548160ff02191690831515021790555050565b600260003373ffffffffffffffffffffffffffffffffffffffff1673ffffffffffffffffffffffffffffffffffffffff16815260200190815260200160002060009054906101000a900460ff168061072457503373ffffffffffffffffffffffffffffffffffffffff16600160009054906101000a900473ffffffffffffffffffffffffffffffffffffffff1673ffffffffffffffffffffffffffffffffffffffff16145b610763576040517f08c379a000000000000000000000000000000000000000000000000000000000815260040161075a906115b2565b60405180910390fd5b60008081548092919061077590611756565b9190505550604051806040016040528060005481526020018281525060086000805481526020019081526020016000206000820151816000015560208201518160010190805190602001906107cb929190611316565b509050507f9742f9a85105a14f429c9539586bababf73bb6571e7427d1ea8f2b490c67fbc6816040516107fe9190611590565b60405180910390a150565b600360205280600052604060002060009150905080600001549080600101805461083290611724565b80601f016020809104026020016040519081016040528092919081815260200182805461085e90611724565b80156108ab5780601f10610880576101008083540402835291602001916108ab565b820191906000526020600020905b81548152906001019060200180831161088e57829003601f168201915b5050505050905082565b60066020528060005260406000206000915090508060000154908060010180546108de90611724565b80601f016020809104026020016040519081016040528092919081815260200182805461090a90611724565b80156109575780601f1061092c57610100808354040283529160200191610957565b820191906000526020600020905b81548152906001019060200180831161093a57829003601f168201915b5050505050905082565b600260003373ffffffffffffffffffffffffffffffffffffffff1673ffffffffffffffffffffffffffffffffffffffff16815260200190815260200160002060009054906101000a900460ff1680610a0657503373ffffffffffffffffffffffffffffffffffffffff16600160009054906101000a900473ffffffffffffffffffffffffffffffffffffffff1673ffffffffffffffffffffffffffffffffffffffff16145b610a45576040517f08c379a0000000000000000000000000000000000000000000000000000000008152600401610a3c906115b2565b60405180910390fd5b600080815480929190610a5790611756565b919050555060405180604001604052806000548152602001828152506006600080548152602001908152602001600020600082015181600001556020820151816001019080519060200190610aad929190611316565b509050507fd19168e8c20ac1764c5fbe166b97468597652885e01058e8dbed2cf41804d2d981604051610ae09190611590565b60405180910390a150565b3373ffffffffffffffffffffffffffffffffffffffff16600160009054906101000a900473ffffffffffffffffffffffffffffffffffffffff1673ffffffffffffffffffffffffffffffffffffffff1614610b4557600080fd5b6000600260008373ffffffffffffffffffffffffffffffffffffffff1673ffffffffffffffffffffffffffffffffffffffff16815260200190815260200160002060006101000a81548160ff02191690831515021790555050565b600260003373ffffffffffffffffffffffffffffffffffffffff1673ffffffffffffffffffffffffffffffffffffffff16815260200190815260200160002060009054906101000a900460ff1680610c4557503373ffffffffffffffffffffffffffffffffffffffff16600160009054906101000a900473ffffffffffffffffffffffffffffffffffffffff1673ffffffffffffffffffffffffffffffffffffffff16145b610c84576040517f08c379a0000000000000000000000000000000000000000000000000000000008152600401610c7b906115b2565b60405180910390fd5b600080815480929190610c9690611756565b919050555060405180604001604052806000548152602001828152506004600080548152602001908152602001600020600082015181600001556020820151816001019080519060200190610cec929190611316565b509050507fde8557cc3f3718254515e7103c0f426813261b5465af752c59d46cb52c42b0b781604051610d1f9190611590565b60405180910390a150565b600260003373ffffffffffffffffffffffffffffffffffffffff1673ffffffffffffffffffffffffffffffffffffffff16815260200190815260200160002060009054906101000a900460ff1680610dcf57503373ffffffffffffffffffffffffffffffffffffffff16600160009054906101000a900473ffffffffffffffffffffffffffffffffffffffff1673ffffffffffffffffffffffffffffffffffffffff16145b610e0e576040517f08c379a0000000000000000000000000000000000000000000000000000000008152600401610e05906115b2565b60405180910390fd5b600080815480929190610e2090611756565b919050555060405180604001604052806000548152602001828152506007600080548152602001908152602001600020600082015181600001556020820151816001019080519060200190610e76929190611316565b509050507f434754fd613e76f90bb372cc792a48752b6abc339e8943bc0d2dc078805c910381604051610ea99190611590565b60405180910390a150565b600260003373ffffffffffffffffffffffffffffffffffffffff1673ffffffffffffffffffffffffffffffffffffffff16815260200190815260200160002060009054906101000a900460ff1680610f5957503373ffffffffffffffffffffffffffffffffffffffff16600160009054906101000a900473ffffffffffffffffffffffffffffffffffffffff1673ffffffffffffffffffffffffffffffffffffffff16145b610f98576040517f08c379a0000000000000000000000000000000000000000000000000000000008152600401610f8f906115b2565b60405180910390fd5b600080815480929190610faa90611756565b919050555060405180604001604052806000548152602001828152506005600080548152602001908152602001600020600082015181600001556020820151816001019080519060200190611000929190611316565b509050507f7466ebaa22840686c5fd26dc43ec314f872f7cb882e82bf1a8885cd445634df4816040516110339190611590565b60405180910390a150565b600460205280600052604060002060009150905080600001549080600101805461106790611724565b80601f016020809104026020016040519081016040528092919081815260200182805461109390611724565b80156110e05780601f106110b5576101008083540402835291602001916110e0565b820191906000526020600020905b8154815290600101906020018083116110c357829003601f168201915b5050505050905082565b600760205280600052604060002060009150905080600001549080600101805461111390611724565b80601f016020809104026020016040519081016040528092919081815260200182805461113f90611724565b801561118c5780601f106111615761010080835404028352916020019161118c565b820191906000526020600020905b81548152906001019060200180831161116f57829003601f168201915b5050505050905082565b60086020528060005260406000206000915090508060000154908060010180546111bf90611724565b80601f01602080910402602001604051908101604052809291908181526020018280546111eb90611724565b80156112385780601f1061120d57610100808354040283529160200191611238565b820191906000526020600020905b81548152906001019060200180831161121b57829003601f168201915b5050505050905082565b60005481565b6000600260008373ffffffffffffffffffffffffffffffffffffffff1673ffffffffffffffffffffffffffffffffffffffff16815260200190815260200160002060009054906101000a900460ff16806112ef57508173ffffffffffffffffffffffffffffffffffffffff16600160009054906101000a900473ffffffffffffffffffffffffffffffffffffffff1673ffffffffffffffffffffffffffffffffffffffff16145b9050919050565b60026020528060005260406000206000915054906101000a900460ff1681565b82805461132290611724565b90600052602060002090601f016020900481019282611344576000855561138b565b82601f1061135d57805160ff191683800117855561138b565b8280016001018555821561138b579182015b8281111561138a57825182559160200191906001019061136f565b5b509050611398919061139c565b5090565b5b808211156113b557600081600090555060010161139d565b5090565b60006113cc6113c78461164e565b61161d565b9050828152602081018484840111156113e457600080fd5b6113ef8482856116e2565b509392505050565b6000813590506114068161183d565b92915050565b600082601f83011261141d57600080fd5b813561142d8482602086016113b9565b91505092915050565b60008135905061144581611854565b92915050565b60006020828403121561145d57600080fd5b600061146b848285016113f7565b91505092915050565b60006020828403121561148657600080fd5b600082013567ffffffffffffffff8111156114a057600080fd5b6114ac8482850161140c565b91505092915050565b6000602082840312156114c757600080fd5b60006114d584828501611436565b91505092915050565b6114e7816116ac565b82525050565b60006114f88261167e565b6115028185611689565b93506115128185602086016116f1565b61151b8161182c565b840191505092915050565b6000611533602083611689565b91507f596f7520617265206e6f7420746865206f776e6572206f72206d616e616765726000830152602082019050919050565b61156f816116d8565b82525050565b600060208201905061158a60008301846114de565b92915050565b600060208201905081810360008301526115aa81846114ed565b905092915050565b600060208201905081810360008301526115cb81611526565b9050919050565b60006020820190506115e76000830184611566565b92915050565b60006040820190506116026000830185611566565b818103602083015261161481846114ed565b90509392505050565b6000604051905081810181811067ffffffffffffffff82111715611644576116436117fd565b5b8060405250919050565b600067ffffffffffffffff821115611669576116686117fd565b5b601f19601f8301169050602081019050919050565b600081519050919050565b600082825260208201905092915050565b60006116a5826116b8565b9050919050565b60008115159050919050565b600073ffffffffffffffffffffffffffffffffffffffff82169050919050565b6000819050919050565b82818337600083830152505050565b60005b8381101561170f5780820151818401526020810190506116f4565b8381111561171e576000848401525b50505050565b6000600282049050600182168061173c57607f821691505b602082108114156117505761174f6117ce565b5b50919050565b6000611761826116d8565b91507fffffffffffffffffffffffffffffffffffffffffffffffffffffffffffffffff8214156117945761179361179f565b5b600182019050919050565b7f4e487b7100000000000000000000000000000000000000000000000000000000600052601160045260246000fd5b7f4e487b7100000000000000000000000000000000000000000000000000000000600052602260045260246000fd5b7f4e487b7100000000000000000000000000000000000000000000000000000000600052604160045260246000fd5b6000601f19601f8301169050919050565b6118468161169a565b811461185157600080fd5b50565b61185d816116d8565b811461186857600080fd5b5056fea2646970667358221220596e51c0658e3ec5f662a39186730566ea348d70c3afd5ebf4a1e5bb9d99148664736f6c63430008000033",
  "linkReferences": {},
  "deployedLinkReferences": {}
}