{
  "_format": "hh-sol-artifact-1",
  "contractName": "CreateCV",
  "sourceName": "contracts/CurriculumVitae.sol",
  "abi": [
    {
      "inputs": [],
      "stateMutability": "payable",
      "type": "constructor"
    },
    {
      "anonymous": false,
      "inputs": [
        {
          "indexed": false,
          "internalType": "string",
          "name": "typeData",
          "type": "string"
        },
        {
          "indexed": false,
          "internalType": "string",
          "name": "createAt",
          "type": "string"
        },
        {
          "indexed": false,
          "internalType": "string",
          "name": "messages",
          "type": "string"
        },
        {
          "indexed": false,
          "internalType": "string",
          "name": "owner",
          "type": "string"
        }
      ],
      "name": "cvAdded",
      "type": "event"
    },
    {
      "inputs": [
        {
          "internalType": "string",
          "name": "_typeData",
          "type": "string"
        },
        {
          "internalType": "string",
          "name": "_createAt",
          "type": "string"
        },
        {
          "internalType": "string",
          "name": "_messages",
          "type": "string"
        },
        {
          "internalType": "string",
          "name": "_owner",
          "type": "string"
        }
      ],
      "name": "addCVDetails",
      "outputs": [],
      "stateMutability": "nonpayable",
      "type": "function"
    },
    {
      "inputs": [
        {
          "internalType": "address",
          "name": "wallet",
          "type": "address"
        }
      ],
      "name": "addUser",
      "outputs": [],
      "stateMutability": "nonpayable",
      "type": "function"
    },
    {
      "inputs": [
        {
          "internalType": "address",
          "name": "wallet",
          "type": "address"
        }
      ],
      "name": "checkUser",
      "outputs": [
        {
          "internalType": "bool",
          "name": "",
          "type": "bool"
        }
      ],
      "stateMutability": "view",
      "type": "function"
    },
    {
      "inputs": [],
      "name": "cvCount",
      "outputs": [
        {
          "internalType": "uint256",
          "name": "",
          "type": "uint256"
        }
      ],
      "stateMutability": "view",
      "type": "function"
    },
    {
      "inputs": [
        {
          "internalType": "address",
          "name": "wallet",
          "type": "address"
        }
      ],
      "name": "removeUser",
      "outputs": [],
      "stateMutability": "nonpayable",
      "type": "function"
    }
  ],
  "bytecode": "0x60806040526000805533600260006101000a81548173ffffffffffffffffffffffffffffffffffffffff021916908373ffffffffffffffffffffffffffffffffffffffff160217905550610a7c806100586000396000f3fe608060405234801561001057600080fd5b50600436106100575760003560e01c806308698f6d1461005c5780631e9d48cf14610078578063421b2d8b146100a857806398575188146100c4578063ef4b0900146100e0575b600080fd5b610076600480360381019061007191906105d8565b6100fe565b005b610092600480360381019061008d91906105af565b610325565b60405161009f9190610758565b60405180910390f35b6100c260048036038101906100bd91906105af565b6103d3565b005b6100de60048036038101906100d991906105af565b61042e565b005b6100e8610489565b6040516100f591906107f4565b60405180910390f35b3373ffffffffffffffffffffffffffffffffffffffff16600260009054906101000a900473ffffffffffffffffffffffffffffffffffffffff1673ffffffffffffffffffffffffffffffffffffffff1614806101a35750600360003373ffffffffffffffffffffffffffffffffffffffff1673ffffffffffffffffffffffffffffffffffffffff16815260200190815260200160002060009054906101000a900460ff165b6101e2576040517f08c379a00000000000000000000000000000000000000000000000000000000081526004016101d9906107d4565b60405180910390fd5b6000808154809291906101f490610948565b91905055506040518060a00160405280600054815260200185815260200184815260200183815260200182815250600160003373ffffffffffffffffffffffffffffffffffffffff1673ffffffffffffffffffffffffffffffffffffffff16815260200190815260200160002060008201518160000155602082015181600101908051906020019061028792919061048f565b5060408201518160020190805190602001906102a492919061048f565b5060608201518160030190805190602001906102c192919061048f565b5060808201518160040190805190602001906102de92919061048f565b509050507f6fae65c0ce80a94656266ab19ee617a30e2c813dee19ce147cac05c61ef3708c848484846040516103179493929190610773565b60405180910390a150505050565b60008173ffffffffffffffffffffffffffffffffffffffff16600260009054906101000a900473ffffffffffffffffffffffffffffffffffffffff1673ffffffffffffffffffffffffffffffffffffffff1614806103cc5750600360008373ffffffffffffffffffffffffffffffffffffffff1673ffffffffffffffffffffffffffffffffffffffff16815260200190815260200160002060009054906101000a900460ff165b9050919050565b6001600360008373ffffffffffffffffffffffffffffffffffffffff1673ffffffffffffffffffffffffffffffffffffffff16815260200190815260200160002060006101000a81548160ff02191690831515021790555050565b6000600360008373ffffffffffffffffffffffffffffffffffffffff1673ffffffffffffffffffffffffffffffffffffffff16815260200190815260200160002060006101000a81548160ff02191690831515021790555050565b60005481565b82805461049b90610916565b90600052602060002090601f0160209004810192826104bd5760008555610504565b82601f106104d657805160ff1916838001178555610504565b82800160010185558215610504579182015b828111156105035782518255916020019190600101906104e8565b5b5090506105119190610515565b5090565b5b8082111561052e576000816000905550600101610516565b5090565b600061054561054084610840565b61080f565b90508281526020810184848401111561055d57600080fd5b6105688482856108d4565b509392505050565b60008135905061057f81610a2f565b92915050565b600082601f83011261059657600080fd5b81356105a6848260208601610532565b91505092915050565b6000602082840312156105c157600080fd5b60006105cf84828501610570565b91505092915050565b600080600080608085870312156105ee57600080fd5b600085013567ffffffffffffffff81111561060857600080fd5b61061487828801610585565b945050602085013567ffffffffffffffff81111561063157600080fd5b61063d87828801610585565b935050604085013567ffffffffffffffff81111561065a57600080fd5b61066687828801610585565b925050606085013567ffffffffffffffff81111561068357600080fd5b61068f87828801610585565b91505092959194509250565b6106a48161089e565b82525050565b60006106b582610870565b6106bf818561087b565b93506106cf8185602086016108e3565b6106d881610a1e565b840191505092915050565b60006106f060218361087b565b91507f41646d696e20616e6420557365722063616e20646f207468697320616374696f60008301527f6e000000000000000000000000000000000000000000000000000000000000006020830152604082019050919050565b610752816108ca565b82525050565b600060208201905061076d600083018461069b565b92915050565b6000608082019050818103600083015261078d81876106aa565b905081810360208301526107a181866106aa565b905081810360408301526107b581856106aa565b905081810360608301526107c981846106aa565b905095945050505050565b600060208201905081810360008301526107ed816106e3565b9050919050565b60006020820190506108096000830184610749565b92915050565b6000604051905081810181811067ffffffffffffffff82111715610836576108356109ef565b5b8060405250919050565b600067ffffffffffffffff82111561085b5761085a6109ef565b5b601f19601f8301169050602081019050919050565b600081519050919050565b600082825260208201905092915050565b6000610897826108aa565b9050919050565b60008115159050919050565b600073ffffffffffffffffffffffffffffffffffffffff82169050919050565b6000819050919050565b82818337600083830152505050565b60005b838110156109015780820151818401526020810190506108e6565b83811115610910576000848401525b50505050565b6000600282049050600182168061092e57607f821691505b60208210811415610942576109416109c0565b5b50919050565b6000610953826108ca565b91507fffffffffffffffffffffffffffffffffffffffffffffffffffffffffffffffff82141561098657610985610991565b5b600182019050919050565b7f4e487b7100000000000000000000000000000000000000000000000000000000600052601160045260246000fd5b7f4e487b7100000000000000000000000000000000000000000000000000000000600052602260045260246000fd5b7f4e487b7100000000000000000000000000000000000000000000000000000000600052604160045260246000fd5b6000601f19601f8301169050919050565b610a388161088c565b8114610a4357600080fd5b5056fea2646970667358221220794b9781e8a2af465291ae69acf249b9dcf4152eb52468de92d314ee936048bc64736f6c63430008000033",
  "linkReferences": {},
  "deployedLinkReferences": {}
}